:020000040800F2
:10000000284D0020ED0100080B1C0008B11A000863
:10001000091C000849030008DF3D0008000000003B
:100020000000000000000000000000001B1C000891
:100030009D03000800000000191C00081D1C00089A
:10004000070200080702000807020008070200086C
:10005000070200080702000807020008070200085C
:10006000070200080702000807020008070200084C
:10007000070200080702000807020008070200083C
:10008000070200080702000807020008070200082C
:10009000070200080702000807020008070200081C
:1000A000070200080702000807020008070200080C
:1000B00007020008070200080702000807020008FC
:1000C00007020008070200080702000807020008EC
:1000D00007020008070200080702000807020008DC
:1000E00007020008070200080702000807020008CC
:1000F00007020008070200080702000807020008BC
:1001000007020008070200080702000807020008AB
:10011000070200080702000807020008070200089B
:10012000070200080702000807020008070200088B
:10013000070200080702000807020008070200087B
:100140000702000807020008070200080D1C00084B
:10015000070200080702000807020008070200085B
:10016000070200080702000807020008070200084B
:10017000070200080702000800000000000000005D
:10018000070200080702000807020008070200082B
:10019000070200080702000800000000070200082C
:1001A000070200080702000800000000000000002D
:1001B000070200080000000000000000070200081D
:1001C00007020008070200080702000807020008EB
:1001D0000702000807020008DFF80CD000F0A2F8C0
:1001E0000048004701520008284D0020064880477B
:1001F00006480047FEE7FEE7FEE7FEE7FEE7FEE70C
:10020000FEE7FEE7FEE7FEE7BD1C0008D901000897
:100210002DE9F05F0546002092469B46884606463B
:10022000814640241BE0284641464746224600F0CE
:1002300069F853465A46C01A914110D311461846E0
:10024000224600F050F82D1A67EB01084F4622466F
:100250000120002100F047F817EB00094E41201E55
:10026000A4F10104DFDC484631462A464346BDE896
:10027000F09F40EA01039B0703D009E008C9121F61
:1002800008C0042AFAD203E011F8013B00F8013B50
:10029000521EF9D27047D2B201E000F8012B491E7C
:1002A000FBD270470022F6E710B513460A46044613
:1002B0001946FFF7F0FF204610BD30B50B4601464A
:1002C00000202022012409E021FA02F59D4205D3F5
:1002D00003FA02F5491B04FA02F52844151EA2F19F
:1002E0000102F1DC30BD202A04DB203A00FA02F1E1
:1002F000002070479140C2F1200320FA03F3194314
:1003000090407047202A04DB203A21FA02F00021B5
:10031000704721FA02F3D040C2F120029140084315
:1003200019467047064C074D06E0E06840F00103AF
:1003300094E8070098471034AC42F6D3FFF750FF1B
:10034000C0580008E0580008FEE7000010B5002281
:100350004FEA020100EB8203521CC3F884130F2AF8
:10036000F8D300224FF400738418521C84F81C1137
:100370009A42F9D30170417001228270C0F8C4130F
:10038000027640238371417680F81C1380F81D2388
:1003900080F81F1380F81E13002010BD70477047AF
:1003A000002200F001B8000030B50E4B05460120D8
:1003B0005C7A002C14D1587A1C54587A03EB8000D4
:1003C00045605D7A03F108002A54587A421C5A723B
:1003D000303008703A2048702F208870CC70002090
:1003E00030BD0000180D002070B5044600F0E8F89C
:1003F0000546601C02D004480078044400F0E0F890
:10040000401BA042FAD370BD500000202DE9F84FE8
:1004100000224FF0010803254FF00F0E0B6808FA79
:1004200002F42340A3426ED14E68012E05D0022E65
:1004300003D0112E01D0122E12D186684FEA420C41
:1004400005FA0CF7BE43CF6807FA0CF7374387600D
:100450004668A6430C79C4F30014944034434460C6
:10046000C668570005FA07FC8C6826EA0C06BC40F3
:100470003443C4604C68022C01D0122C13D1D40830
:1004800000EB8404A346D4F8209054074FEAD46AC2
:100490000EFA0AF629EA06090E6906FA0AF646EA8B
:1004A0000906CBF8206006680C7926EA0C0604F0F1
:1004B0000304BC40344304604C68E40060D5334C12
:1004C000266846F480462660246822F0030604F479
:1004D000804400942E4C3444A446D4F8084896072F
:1004E000370F0EFA07F6B4432A4EB04201D1002668
:1004F0001FE0294EB04201D101261AE0274EB0423A
:1005000002D1022615E03BE0254EB04201D1032680
:100510000FE0244EB04201D104260AE0224EB04240
:1005200001D1052605E0214EB04201D1062600E0AA
:100530000726BE402643CCF808681D4E34684F6835
:100540009C43FF0300D51C433460194E361D3468AC
:100550004F689C43BF0300D51C433460144E0836DB
:1005600034684F689C43FF0200D51C433460104E32
:100570000C3634684F689C43BF0200D51C4334607E
:10058000521C102AFFF44AAFBDE8F88F44380240ED
:100590000030014000000240000402400008024018
:1005A000000C0240001002400014024000180240FB
:1005B000003C01400AB1816170470904FBE700007B
:1005C000014880687047000050000020D0F8C00249
:1005D00001F07FBFD0F8C00201F085BF006803F0D2
:1005E00053B9006803F054B901EB810100EBC1007D
:1005F00090F85C00704701EB810100EBC100C06C1A
:10060000704710B5044690F8B802012809D00120BF
:1006100084F8B802206803F046F9002084F8B80294
:1006200010BD022010BD2DE9FE430546DDE90B702B
:1006300095F8B842DDF828C0012C1CD001EB8104EC
:100640004FF0010905EBC40485F8B892002684F840
:100650003D6084F83830A4F8400084F8391084F8FC
:100660003F7002F07F0884F83A805FEA026805D59F
:1006700084F83B9004E00220BDE8FE8384F83B60F0
:1006800084F83CC0CDF800C0CDE90170286803F0C3
:100690006BF985F8B862EFE770472DE9F0030E4675
:1006A000DDE906C9DDE9087401EB860100EBC10153
:1006B000022581F83B2081F83F30BCF1000F0AD0C1
:1006C00081F8425000246BB1012B2DD0022B12D0A7
:1006D000032B16D10FE04FF0030881F8428081F818
:1006E0003D40EFE7BCF1010F0BD152B9CFB9012268
:1006F00081F8512003E0A2B191F85020A2B181F815
:100700004250C1E9119781F85C40CC6481F83960AE
:1007100081F85D40027C0068BDE8F003383103F0E9
:100720009FB991F85120E9E781F84240E9E70000DC
:100730002DE9F04104460068064603F0B0F80128B0
:100740007ED1206803F0B7FA002879D0206803F042
:10075000B2FA800203D521684FF400104861206886
:1007600003F0A9FAC00203D521684FF48010486154
:10077000206803F0A0FA400103D521684FF08060A3
:100780004861206803F097FA800702D521680220AB
:100790004861206803F08FFA80000ED521684FF081
:1007A00000504861D6F84004C00706D12046FFF744
:1007B00011FF0121206803F063FA206803F07BFA3F
:1007C000C00102D5204601F0F1F8206803F073FA69
:1007D000000705D5204600F0D2F8216808204861BE
:1007E000206803F068FA800123D5206803F034F90B
:1007F000074600254FF0010814E000BF05F00F0187
:1008000008FA01F038420CD006EB4510D0F800058C
:10081000E9B20004204602D500F06AFE01E000F0D3
:10082000A3FF6D1CA068A842E8D821684FF00070B3
:100830004861206803F03FFAC043C0060ED400E0D0
:100840000CE02068816921F010018161204601F0EF
:10085000F7F82068816941F010018161BDE8F081FD
:1008600070B58AB0040005D094F8B9022568002656
:1008700018B107E001200AB070BD84F8B8622046C4
:1008800000F028F8032084F8B902E86BC00500D412
:100890002661206802F0A2FF04F1100128220D4613
:1008A0006846FFF7E6FC94E80F0002F041FF0121E3
:1008B000206803F02BFA282229466846FFF7D9FC66
:1008C00094E80F0003F074F9012084F8B9020020C5
:1008D000D1E7000030B587B0044614216846FFF721
:1008E000E1FC2068B0F1A04F38D11D480024016818
:1008F00041F00101016000681A4D00F0010005900F
:100900004FF4E85000900220CDE901040320039049
:100910000A20049069462846FFF778FD6815CDE95E
:100920000004694628460294FFF770FD0C48001D3C
:10093000016841F08001016009481430016841F408
:10094000804101600068002200F48040059011465B
:10095000432000F0A9F8432000F098F807B030BD1C
:100960003038024000000240D0F8C00201F052BE10
:10097000D0F8C00201F052BE006803F0AEB9D0F862
:10098000C00201F001BE10B5044690F8B80201287B
:100990000DD0012084F8B802206802F04DFF01213B
:1009A000206802F033FF002084F8B80210BD022056
:1009B00010BD10B5044690F8B802012809D00120F6
:1009C00084F8B802206803F0B9F9002084F8B8026E
:1009D00010BD022010BD0000024881680278114459
:1009E00081607047500000200B4810B5016841F449
:1009F00000710160016841F480610160016841F4A7
:100A000080710160032000F06FF8002000F006F80C
:100A100000F024F8002010BD003C024070B50D4DE0
:100A200004464FF47A712878B1FBF0F00A4909685E
:100A3000B1FBF0F000F082FC48B9102C07D2002284
:100A40002146501E00F030F800206C6070BD01207F
:100A500070BD0000500000205C0000200A4808B56E
:100A6000016841F480410160006800F4804000901A
:100A70000548001F016841F080510160006800F0E6
:100A80008050009008BD000044380240002809DB77
:100A900000F01F02012191404009800000F1E02098
:100AA000C0F8001170470000F0B40E4B1B680C46F4
:100AB000C3F30223C3F10705042D00D90425191D32
:100AC000072901D2002300E0DB1E012606FA05F10A
:100AD000491E214099409E40761E16403143F0BC8D
:100AE00003F092B90CED00E0064900F00702086837
:100AF0004FF6FF03184040EA0220034A1043086003
:100B0000704700000CED00E00000FA052DE9F84FF9
:100B1000044600780027C34DC00708D02868E16963
:100B200020F0C06008432860E06900B90127207800
:100B3000800708D52868216A20F0C0500843286043
:100B4000206A00B90127208881046FF0FF0015D5C5
:100B50002968A26C21F4401111432960A16C19B1DC
:100B6000B1F5001F02D009E0012707E0296862699A
:100B700021F4F85100EB0222114329602188490435
:100B800015D52968E26C21F4400111432960E16C1C
:100B900019B1B1F5000F02D009E0012707E029687B
:100BA000626921F4F85100EB0220014329602078AA
:100BB0004FF00009000755D59A484C38016841F0BC
:100BC000805101600068DFF8608200F08050009082
:100BD000D8F8001041F48071C8F80010FFF7F0FC5D
:100BE000064604E0FFF7ECFC801B02286FD8D8F81B
:100BF0000000C005F6D58B4E1C3E306810F44070E6
:100C00001FD0A18C01F4407181421AD030680122BA
:100C100020F4407185480260C0F80090316030686F
:100C2000C0070ED0FFF7CCFC804641F2883A05E0C1
:100C3000FFF7C6FCA0EB0801514548D83068800793
:100C4000F6D5616A7748C1F301228438032A36D089
:100C5000016821F4F81101603068A18CC1F30B0127
:100C6000084330602078DFF8C8A1400703D594F826
:100C70005410CAF8E01120786E4EC00605D53068D1
:100C8000E16A20F440000843306020784FF00068AB
:100C9000800609D53068216B20F000600843306081
:100CA000206B404500D101272078400605D53068EB
:100CB000A16A20F080500843306067B908E00268FC
:100CC0005D4B22F4F81219400A430260C4E773E056
:100CD0002068802877D1DFF864B1CBF86890FFF7FF
:100CE0006FFC504F81468C3F06E000BFFFF768FC69
:100CF000A0EB090002285FD838680001F6D4216D06
:100D0000CAF8D81020684E49C20701D0E2697AB10A
:100D1000820701D5226A5AB1820602D5226B42456A
:100D200006D040060FD5A06A68B9206B40450AD1AD
:100D3000D4E9010240EA8210227B237C120642EAB7
:100D40000372104308602068820401D5A26C1AB1B6
:100D5000400415D5E06C98B90868D4E9012342EA4B
:100D60008312C0F30360237C000640EA0370024351
:100D70000A602868A26920F01F00521E10432860F4
:100D8000207800060AD5D4E9010240EA8210227BCD
:100D9000237C120642EA0372104308600120CBF85C
:100DA0006800FFF70DFC80460AE000BFFFF708FC73
:100DB000A0EB0800022803D90320BDE8F88F02E069
:100DC00038680001F2D52088C00505D52868616B18
:100DD00020F00040084328602088800505D5286859
:100DE000A16B20F40040084328602088400505D509
:100DF0002868E16B20F00040084328602088000547
:100E000005D52868216C20F480400843286020889C
:100E1000C00405D53068616C20F040400843306064
:100E20000020CAE78C38024000700040400E474264
:100E30000010474294380240FFFCFF0F0000474279
:100E4000843802402DE9F0470E46050065D0DFF8F2
:100E50001481D8F80000F7B200F00F00B04207D2BA
:100E600088F80070D8F8000000F00F00B04254D1AC
:100E700028683D4C810712D5400703D5206840F40F
:100E8000E05020602878000703D5206840F46040D7
:100E900020602068A96820F0F000084320602878CE
:100EA000C0072DD0304968680839012812D00228BF
:100EB00013D0032811D00968890700292DDA216889
:100EC00021F0030101432160FFF77AFB814641F2E3
:100ED000883A0EE009688903EFE709688901ECE7C1
:100EE000FFF76EFBA0EB0901514502D90320BDE8D5
:100EF000F0872068696800F00C00B0EB810FEFD13B
:100F0000D8F80010404601F00F01B14207D9077030
:100F1000006800F00F00B04201D00120E7E7287818
:100F2000400705D52068E96820F4E05008432060B8
:100F30002878000706D52068296920F4604040EA37
:100F4000C100206000F038F82168084AC1F303119D
:100F5000515CC8400649086006480068FFF75EFD1E
:100F60000020C4E7003C024008380240B85700089F
:100F70005C0000205400002004480549006809680E
:100F8000044AC1F38221515CC84070475C000020D4
:100F900008380240C8570008044805490068096835
:100FA000044AC1F34231515CC84070475C000020E4
:100FB00008380240C8570008154810B5006810F0FE
:100FC0000C02144813D04110042A0FD0082A0ED165
:100FD0000F4C241F2268236802F03F025B0207D5F2
:100FE0002068C0F38810A0FB010106E0084610BD90
:100FF0002168C1F38811A1FB00010023FFF708F964
:101000002168C1F30141491C4900B0FBF1F010BD5A
:10101000083802400024F4002DE9F84F0546007816
:10102000DFF800B3C04CC0074AD0DBF800105846C8
:10103000C1F38101012908D00068C0F381000228B2
:101040000AD1201D0068400206D52068800337D5EC
:101050006868002872D033E06868B0F5803F10D02F
:10106000B0F5A02F206810D020F4803020602068D8
:1010700020F4802020606868A8B1FFF7A1FA064636
:101080000DE0206840F48030F4E740F480202060D8
:10109000F7E700BFFFF794FA801B64286FD8206839
:1010A0008003F7D50CE0FFF78BFA064605E000BF9A
:1010B000FFF786FA801B6428F0D820688003F7D4F5
:1010C0002878DFF8688280074FF0000940D5DBF808
:1010D0000010584611F00C0F09D00068C0F38100D1
:1010E00002280BD18F48001F0068400206D42068F8
:1010F000800715D5E868012820D111E0E868B8B16B
:101100000120C8F80000FFF75BFA064605E000BFC3
:10111000FFF756FA801B0228C0D820688007F7D551
:101120002068296920F0F80040EAC10020600FE043
:10113000C8F80090FFF744FA064606E0EFE000BF6B
:10114000FFF73EFA801B022819D820688007F7D4E1
:101150002878000722D5734E754869696C3679B1D5
:1011600001210160FFF72CFA074604E0FFF728FA97
:10117000C01B022803D830688007F7D50EE089E04D
:10118000C0F80090FFF71CFA074604E0FFF718FAD2
:10119000C01B02287ED830688007F7D42878400723
:1011A00068D5DFF880A100270AF1380ADAF80000D4
:1011B000C0000BD4DAF8001041F08051CAF80010DA
:1011C000DAF80000012700F080500090594E306896
:1011D000C00510D4306840F480703060FFF7F0F93B
:1011E000009005E0FFF7ECF90099401A022851D869
:1011F0003068C005F6D54B4EA868683601280FD078
:101200000528306810D020F001003060306820F0F0
:1012100004003060A868B8B1FFF7D2F900900FE081
:10122000306840F00100F4E740F004003060F7E778
:10123000FFF7C6F90099411A41F28830814266D819
:1012400030688007F4D50EE0FFF7BAF9009007E0A8
:10125000FFF7B6F90099411A41F28830814256D819
:1012600030688007F4D42FB1DAF8001021F08051F3
:10127000CAF80010A869D0B3DBF80010C1F38101EF
:1012800002294CD00228484607D0C8F86000FFF772
:1012900097F900E03BE005463CE04746C8F86000AF
:1012A000FFF78EF9064604E0FFF78AF9801B022853
:1012B0002DD820688001F7D4F5E907010843E968D3
:1012C0001D4A490802EB0141AA6841EA821108431C
:1012D000297C40EA0160297D40EA01711148001F24
:1012E000016001203866FFF76BF9054605E014E060
:1012F000FFF766F9401B022809D820688001F7D55E
:101300000BE000BFFFF75CF9401B022802D9032065
:10131000BDE8F88F20688001F4D40020F8E70120B0
:10132000F6E700000838024000380240000047425B
:10133000800E4742007000400000FFFF10B5401EC5
:10134000B0F1807F01D3012010BD4FF0E024606137
:101350000F21601702F058FD0020A06107202061D6
:10136000002010BD70B5040004D094F839000025A9
:1013700010B106E0012070BD84F83850204600F01E
:1013800023F8242084F839002068C16821F4005132
:10139000C160204600F0A0FC2068016921F4904162
:1013A00001612068416921F02A0141612068C1681A
:1013B00041F40051C160E563202084F8390084F8CD
:1013C0003A00002070BD000010B586B0044614211C
:1013D0006846FEF767FF14492068884221D1134808
:1013E0000021026842F480220260006800F480203C
:1013F00005900E481038026842F00802026000684A
:1014000000F0080005904FF4407000900220CDE9F4
:101410000101032003900720049069460448FEF769
:10142000F5FF06B010BD0000004800404038024003
:10143000000C02402DE9F843044690F839001F469D
:1014400016460D46202850D1B5B1AEB194F83800FB
:1014500001284AD0012084F838004FF00008C4F871
:101460003C80212084F83900FFF7AAF8A684814641
:10147000E68484F8388026E00120BDE8F883E08C1B
:10148000401EE084A0684B46B0F5805F4FF000023C
:101490004FF080012046009703D000F0BFFCE8B970
:1014A0000DE000F0BBFCC8B928882168C0F3080033
:1014B0004860206908B16D1C05E0AD1C03E021689F
:1014C00015F8010B4860E08C0028D8D14B4600226B
:1014D00040212046009700F0A1FC08B10320CCE792
:1014E000202084F839000020C7E70220C5E700006B
:1014F0002DE9F05F074600680E4600EB4114D4F872
:1015000008054FF00409420701EB86004FF0050B78
:101510004FF0100807EBC00508D5C4F80895D4F8BB
:101520000C0540F00200C4F80C0542E0D4F80805B0
:10153000C0050DD54FF48070C4F80805072085F864
:101540005D00D4F80C0540F00200C4F80C0517E06B
:10155000D4F80805800601D5202028E0D4F8080535
:101560004FF0080A00070FD5D4F80C0540F0020030
:10157000C4F80C0585F85DB0C4F80885C4F808A562
:10158000386802F090F914E0D4F80805400510D549
:10159000D4F80C0540F00200C4F80C05386802F0DD
:1015A00082F9C4F8088585F85DA04FF48060C4F81E
:1015B0000805D4F8080580050ED5D4F80C0540F0D0
:1015C0000200C4F80C05314604F5A164386802F045
:1015D0006AF94FF40070A4E0D4F808054FF0000158
:1015E000C0074FF0010242D0386930B1A86CD4F87E
:1015F0001035C3F31203C01AE86485F85D20A965AD
:10160000C4F8082595F83F0030B1022804D003281B
:1016100011D0012818D023E0D4F80C0540F00200C6
:10162000C4F80C05314604F5A164386802F03BF9B2
:10163000C4F8008014E0D4F8000540F00050C4F86D
:10164000000585F85C2007E085F85C2095F85000DF
:1016500080F0010085F8500031463846FFF71CF84D
:1016600015F8500F80F001002870BDE8F09FD4F805
:10167000080580073ED5D4F80C0520F00200C4F818
:101680000C0595F85D00022301280AD005280BD02F
:1016900006280CD008280AD003281AD007281BD007
:1016A0001FE085F85C201CE085F85CB019E0A86DAF
:1016B000401CA86503280CD9A96585F85C9000BF7B
:1016C000D4F8000520F0804040F00040C4F8000548
:1016D00007E085F85C30F3E7A86D401CA86585F845
:1016E0005C90C4F8083595F85C2031463846FEF722
:1016F000D3FFBAE7D4F80805000614D5D4F80C05D2
:1017000040F00200C4F80C05A86D3146401CA865E5
:10171000062085F85D0004F5A164386802F0C3F87E
:1017200080202060A1E7D4F80805C0069DD595F873
:101730003F00032803D020B1022802D011E0A965A0
:1017400005E0A965386960B9032085F85D00D4F823
:101750000C0540F00200C4F80C053146386802F070
:10176000A2F8C4F8088580E72DE9F047026802EB8B
:101770004114D4F808254FF00403520709D5C4F8E2
:101780000835D4F80C0540F00200C4F80C05BDE89B
:10179000F087D4F8082501EB810596064FF000028A
:1017A00000EBC5054FF0020C15D52023C4F8083511
:1017B00095F83D30012BEAD185F83D2085F85CC0D5
:1017C000D4F80C2542F00202C4F80C250068BDE8EC
:1017D000F04702F068B8D4F8086577064FF00106C4
:1017E00011D585F85D3085F83D60AA65D4F80C25E3
:1017F00042F00202C4F80C25006804F5A16402F06E
:1018000052F8402010E0D4F80875BF050ED5D4F882
:101810000C2542F00202C4F80C25006804F5A1640E
:1018200002F041F84FF400702060B0E7D4F808757A
:10183000FF070FD0AA65D4F80C2542F00202C4F8C5
:101840000C25006804F5A16402F02DF8266085F8E7
:101850005D609CE7D4F808754FF005095FEA0778EA
:101860004FF008070DD5C4F80875D4F80C2542F0E0
:101870000202C4F80C25006802F015F885F85D90A6
:1018800085E7D4F808854FF0100A5FEAC86818D5D4
:10189000AA65032285F85D2095F83D2022B995F8C8
:1018A0003C200AB985F83D60D4F80C2542F00202CC
:1018B000C4F80C25006804F5A16401F0F4FF50465B
:1018C000B2E7D4F808855FEA08680FD5D4F80C258C
:1018D00042F00202C4F80C25006804F5A16401F08E
:1018E000E2FF062085F85D0080209DE7D4F808859A
:1018F0005FEA485812D5D4F80C2542F00202C4F829
:101900000C25006804F5A16401F0CDFFC4F800A027
:101910004FF48060206085F85D7038E7D4F8087572
:10192000BF0796D5D4F80C7527F00207C4F80C75DC
:1019300095F85D70012F0AD0032F17D0042F15D012
:10194000052F16D0062F17D0082F15D027E085F8C1
:101950005C6095F83F20022A01D0032A1FD195F838
:10196000512082F0010285F8512018E085F85CC012
:1019700015E085F85C9012E0AE6D761CAE65032E26
:1019800003D9AA6585F85C3001E085F85CC0D4F81D
:10199000002522F0804242F00042C4F80025C4F83D
:1019A00008C595F85C20FEF777FEF0E67CB5046884
:1019B0000546D4F840040190D4F8400420F02E00ED
:1019C00000900198800709D50198C00702D02846E9
:1019D000FEF7FCFD009840F002000090019800071F
:1019E00024D5009840F008000090019840071AD5CF
:1019F000A869022803D0E86801280CD00FE00198FC
:101A0000C0F341400228286803D0012102F038F9D0
:101A100005E00221FAE74EF66020C4F804042846E7
:101A2000FEF7A6FF02E02846FEF79EFF019880061B
:101A3000009802D540F020000090C4F840047CBD1E
:101A40002DE9F041024600680646016AC1F34343AE
:101A500001F00F07C1F30A14022B25D1002C23D06B
:101A600007EB870102EBC105696C00291CD02246F7
:101A700002F025F9686C20446864E86C2044E8644E
:101A800006EB4710D0F81015084A11420CD0D0F8D8
:101A9000001521F0804141F00041C0F8001515F813
:101AA000500F80F001002870BDE8F0810000F81FA1
:101AB000FEE7000010B504490448FEF771FC024936
:101AC000491E087010BD000001000020A457000846
:101AD000F0B587B014216846FEF7E4FB32480024D5
:101AE000016841F004010160016801F00401059101
:101AF000016841F080010160016801F080010591F9
:101B0000016841F002010160016801F002010591E4
:101B1000016841F008010160016801F008010591C8
:101B2000016841F040010160016801F04001059148
:101B3000016841F00101016000681C4E00F00100E5
:101B400044F281050590002229463046FEF732FD19
:101B5000174F002240213846FEF72CFD4FF400506D
:101B600000901448CDE9010469461348FEF74EFC85
:101B700000950125CDE90154694630460394FEF7EE
:101B800045FC40200090CDE9015469463846039455
:101B9000FEF73CFC8020CDE90004694638460294FB
:101BA000FEF734FC07B0F0BD3038024000040240BC
:101BB00000180240000011100008024010B5012278
:101BC0000B490C4800F05DFC08B1FEF7E8FB0A4940
:101BD000084801F0C7FC08B1FEF7E1FB054801F039
:101BE00004FD002803D0BDE81040FEF7D8BB10BDAF
:101BF00001360008D000002068000020014801F0F4
:101C00009DBB0000D0000020FEE770470148FEF7B2
:101C10008FBD0000340A002070477047FEF7DCBE1D
:101C200030B5A9B0342116A8FEF73CFB142123A837
:101C3000FEF738FB58216846FEF734FB1D480024A8
:101C4000016841F080510160006800F080502890E8
:101C50001948016841F4404101600068022500F420
:101C600040402890012016904FF4A020179068055E
:101C7000CDE91C5008204FF4C071CDE91E010421AC
:101C8000CDE92010229516A8FFF7C6F90F20CDE95F
:101C90002305E802CDE92540032123A82794FFF777
:101CA000D1F8202000900C946846FEF72FFF29B051
:101CB00030BD000040380240007000400548016817
:101CC00041F47001016003494FF000608039086001
:101CD0007047000088ED00E02DE9F04104460068FF
:101CE0000169E26821F44051114301612169A06852
:101CF000E26908436169114308432168CA6849F2EF
:101D00000C639A430243CA6020684169A26921F4C6
:101D1000407111434161E069192764253226B0F50D
:101D2000004F3A493A4A3B4BDFF8ECC020684FF08D
:101D300000080AD0604505D0884203D0904201D007
:101D400098423AD1FFF728F939E0604505D088423A
:101D500003D0904201D0984202D1FFF71DF901E073
:101D6000FFF70AF961684A18A0FB070148EB08036E
:101D7000FEF74EFA0146B0FBF5F00201B1FBF5F0BB
:101D80006FF01803584301EB800006EBC000B0FB76
:101D9000F5F000F0F80002EB4002B1FBF5F058431B
:101DA00001EB800006EBC000B0FBF5F000F007008F
:101DB000216810448860BDE8F081FFF7DDF86168B4
:101DC0008B0F8A00A0FB0701FEF722FA0146B0FB49
:101DD000F5F06FF01802504301EB800006EB0010A5
:101DE000B0FBF5F000F0F002B1FBF5F002EB0012F1
:101DF000B1FBF5F06FF01803584301EB800006EBE0
:101E00000010B0FBF5F000F00F00D1E70014014026
:101E100000180140001C0140001001402DE9F04174
:101E2000984617460E460446069D1DE0681C1BD0CA
:101E30002DB1FEF7C5FBA0EB0800A84214D920681D
:101E4000C16821F4D071C1602068416921F00101AD
:101E50004161202084F8390084F83A00002084F899
:101E600038000320BDE8F0812068006836EA0000F1
:101E700004D00020B842D9D00020F3E70120F9E7D0
:101E800010B500224FF6FF7300EB8204B4F88443D0
:101E900024040BD49A4207D002F00F0300EB830016
:101EA00041F40041C0F88413D0B210BD521CD2B22C
:101EB0000B2AE9D31A46F7E77FB51C46012501AE88
:101EC0000023009586E80E0002232A46214600F0F2
:101ED000D7FB04B0002070BD7FB51D4690F81D33C0
:101EE000089C03B100240123CDE90031CDE902248F
:101EF00002230022294600F0C3FB04B0002070BD7D
:101F000010B500F0DDFA002010BD8278012A07D15B
:101F10000222027401224274002242828182C28221
:101F20000022114600F00FB87FB51C46012501AE16
:101F30000023009586E80E002A46214600F0A0FB0B
:101F400004B0002070BD70B504460120A37805469A
:101F5000012B0BD0022B08D1204600F014F958B108
:101F6000032809D0022800D1A57070BDA160A2810C
:101F700025760221A17070BDA5700021217670BD6B
:101F80007FB51D4690F81D33089C03B10024012342
:101F9000CDE90031CDE9022400231A46294600F09C
:101FA0006FFB04B0002070BD1FB500231446CDE9BF
:101FB00000310822CDE902231A46214600F060FBD9
:101FC00004B0002010BDFEF70FBA000070B5054642
:101FD000002005F54E7500BF00EB800404EBC00443
:101FE00005EB4404E67B0A348E4201D0FF2909D177
:101FF000A679964201D0FF2A04D1E4799C4206D00A
:10200000FF2B04D0401CC0B20228E5D3FF2070BDD6
:102010000B2907D200EB8100B0F88413C1F30E0145
:10202000C0F884130020704730B48578029C012DDD
:102030000FD141F0800101740621417403214282D5
:10204000B1EB122F02D140F2094100E00021818260
:10205000C482224630BC1946FFF775BF0A88037850
:102060001A440A80017808447047F8B50E4600F11A
:102070001C05009104462B464FF400720021FFF727
:10208000D3FF070005D13246294604F54E7001F012
:10209000E7F83846F8BD38B50D460091044600F51E
:1020A0008E734FF480720021FFF7BEFF002839D1F4
:1020B00094F81C1184F8261394F81D1184F8271342
:1020C000B4F81E11A4F8281394F8201184F82A13E8
:1020D00094F8211184F82B1394F8221184F82C130E
:1020E00094F8231184F82D13082D1BD9B4F824116A
:1020F000A4F82E13B4F82611A4F83013B4F828115C
:10210000A4F8321394F82A1184F8341394F82B119C
:1021100084F8351394F82C1184F8361394F82D11A3
:1021200084F8371338BDF8B51C461646009341F4C1
:10213000407200F58E731D460021FFF775FF0028E1
:1021400014D16978032911D129788A1EA24200D8B6
:1021500014460021A2B2AD1C04E06B5C891C06F899
:10216000013B89B29142F8D300213170F8BD0100E2
:102170004FF0000004D0012901D0022901D0022033
:102180007047012070472DE9F84F0125017E044674
:102190000B26092728464FF007084FF0050A4FF095
:1021A0000D090C2919D2DFE801F0B4060E26313CE6
:1021B00048606B7C899A627904F110012046FFF730
:1021C000F3FE022012E06179204600F0D9F90128DF
:1021D00004D0042871D002287FD09AE0207CE18AC4
:1021E00000F0800021B180283AD10320207690E0D1
:1021F000802814D02EE0D4F8C403E0812379A2898A
:102200002046A168FFF790FE0420EFE721792046E1
:1022100000F0B6F9012802D0052840D056E0277614
:1022200077E000906379A2892046A168FFF7A8FEB5
:10223000D4F8C403E0810620D8E76179204600F095
:102240009FF9012806D0052807D0022808D00428C5
:1022500009D05EE084F818805BE00C2020761EE058
:1022600084F818A055E0267652E000222379114622
:102270002046FFF759FED4F8C403E0810820B5E7F3
:102280002179204600F07CF9012804D0042824D0CC
:10229000052804D03DE084F81890002539E0032596
:1022A00037E000900022637911462046FFF768FE70
:1022B000D4F8C403E0810A2098E70EE06179204653
:1022C00000F05EF9012804D00228A8D0042804D028
:1022D0001FE0002584F818901BE0267619E0617E47
:1022E000491CC9B26176022902D82076A07010E09C
:1022F000D4F8D423062120469047002565766179DD
:102300002046FFF785FE21792046FFF781FE2570E4
:1023100002252846BDE8F88F2DE9FE430446012634
:10232000407800250D27B04604F58E7208280CD29F
:10233000DFE800F0042A3C686F8692990821204665
:10234000FFF7A9FE10B103280DD097E094F82D03F4
:10235000A07184F8018094F81D130091CDE901501B
:1023600094F81C3338E094F81E03401CC0B284F883
:102370001E03032818D861792046FFF749FE21790A
:102380002046FFF745FE59E012212046FFF783FE65
:10239000A8BB022047E000BF94F81E03401CC0B257
:1023A00084F81E03032840D9277067E001212046E6
:1023B00001F0F1F810B1032822D05FE00220FFF70E
:1023C00002FE84F81C8303206070A07994F81D132A
:1023D000CDE900154346029021798022204600F085
:1023E00035FFA07994F81D130091CDE9015094F8C0
:1023F0001C3361790022204600F028FF3EE00EE009
:1024000027702EE009212046FFF72FFE38B904205F
:1024100009E0B4F83A132046FFF727FE10B103286D
:10242000BAD02BE00520607028E061792046FFF7E4
:10243000EFFD21792046FFF7EBFD657025701DE06B
:1024400094F8341306250AE0FF232046FFF76BFEBD
:1024500038B1032805D011E094F835130725002979
:10246000F2D165700AE094F8361331B1FF232046AB
:10247000FFF759FE08B1032800D100263046BDE819
:10248000FE8370B50E46040018D084F8CC230025D6
:10249000C4F87C53C4F8805304F54874FDF756FF24
:1024A000E57025706570A570A4F548740EB1C4F888
:1024B000D463204600F078F8002070BD022070BD83
:1024C00010B5D0F8D003FEF79CF8BDE81040FFF738
:1024D0004EBE012180F82013002180F8211380F8DE
:1024E00022130846704710B50446012084F82103E2
:1024F000002084F8200384F82303204600F0B7F876
:1025000021792046FFF784FD61792046FFF780FDA1
:10251000002010BD10B590F8CC03012804D1012291
:1025200040210448FEF746F8C820FDF75DFF002073
:1025300010BD000000180240D0F8D003FEF75BB8D1
:1025400010B50124D0F8D003FEF74BF820B10128D4
:1025500005D0022803D101E0002400E00224204637
:1025600010BDD0F8D00301EB810100EBC10090F861
:102570003B1011B190F85000704790F8510070472F
:10258000D0F8D003FEF730B8D0F8C413491CC0F817
:10259000C41301780B2905D1D0F87C13002901D090
:1025A000896908477047000010B5044690F8CC03CD
:1025B00001281CD10F484FF0A0410022C0F8C042B2
:1025C000C4F8D00301600C2181600121C0E903122D
:1025D0000222C0E90621FEF743F908B1FDF7DFFE4C
:1025E0000448FDF7FBFF0146204600F024F80020D8
:1025F00010BD0000340A0020FEB508AF97E8700057
:102600008DE87000D0F8D003FEF70DF8BDE8FE406D
:10261000FFF7ADBD002180F823137047012180F83A
:102620002313704710B5D0F8D003FEF7A5F9BDE825
:102630001040FFF79CBDC0F8C4137047D0F8D0031A
:1026400001EB810100EBC10090F83B1011B180F863
:10265000502001E080F851200020704710B5D0F8DC
:10266000D003FEF790F9BDE81040FFF780BD10B52C
:10267000D0F8D003FEF79DF9BDE81040FFF777BD15
:102680002DE9FF410DF1280898E8F0008DE8F000F1
:10269000D0F8D003FEF701F804B0BDE8F041FFF731
:1026A00066BD03460220D3F87C13C9692AB1012A0A
:1026B00005D189791846FFF728BCC979FAE7704730
:1026C000D0F87C030549C069416505498165012150
:1026D00000F8501F8170002070470000555342439E
:1026E000504030202DE9F84F0746D0F87C030126F2
:1026F0003546C4694FF00B0A4FF00A0B94F85000AE
:102700004FF009094FF007080C2845D2DFE800F028
:10271000D20611252E4852757EA7AFCB84F86110E2
:10272000022084F85000009563791F2204F15401BF
:1027300059E061793846FFF723FF012802D00228CB
:102740007ED03FE0E06D002829D094F860000006BC
:1027500001D503204BE0052049E023796289384602
:10276000D4F88C10FFF7A8FB042040E0217938460C
:10277000FFF706FF01284FD16289E06D90420CD926
:10278000D4F88C10801A1144C4F88C10E0656BD01A
:1027900023793846FFF790FB8CE00020E06563E08A
:1027A0000095637922893846D4F88C10FFF794FBA2
:1027B00006201CE061793846FFF7E2FE012804D0CC
:1027C0000228C8D0052815D074E02289E06D904217
:1027D000E3D9D4F88C10801A1144C4F88C10E06549
:1027E00042D0009563793846FFF776FB62E084F8C3
:1027F00050005FE084F850B05CE023790D2204F1D2
:1028000078013846FFF758FB0820F0E72179384671
:10281000FFF7B6FE012802D005281DD04AE004F8D3
:10282000505F3846A570D7F87C13CC692179FFF743
:1028300083FE0D280CD12149A06F884208D100E009
:1028400036E0A16DE06F884202D194F8840008B1AF
:1028500002262FE000262DE084F850902AE0002286
:102860003846FFF71EFF38B984F8508022E0012275
:102870003846FFF716FF10B1042811D01AE061792D
:102880003846FFF76EFEC0F10100C2B261793846EA
:10289000FFF7D4FE217900223846FFF7CFFEDBE7B1
:1028A00084F850A006E0384600F015F8060001D183
:1028B00084F850503046BDE8F88F0000555342531D
:1028C000A1220274FE2242740022428282820122EC
:1028D000C282FFF738BB21210174FF21417400211E
:1028E00041828182C1820A46FFF72DBB70B5D0F8C4
:1028F0007C130125CC69A17B21B1022902D00329D7
:102900002ED127E02146FFF7DBFF002105460328F3
:1029100001D01DB124E02170002504E020780228B8
:1029200001D9022001E02078401C20700020022301
:102930000CE000BF00EB800202EBC00204EB82025D
:10294000401C82F8923082F8C110C0B222788242D4
:10295000F0D805E00021FFF7D8FA08B9E07BA073B2
:10296000284670BD10B51446D0F87C230078D36992
:102970000B2801D0022010BD01EB810000EBC1004B
:1029800003EB8001342220469031FDF772FC0020D9
:1029900010BD70B50546D0F87C030026C469617986
:1029A00039B12846FFF7ACFA61792846FFF730FBCA
:1029B0006671217939B12846FFF7A2FA21792846B4
:1029C000FFF726FB2671D5F87C03C06920B102F021
:1029D0000BFBD5F87C03C661002070BDFEB5054633
:1029E000D0F87C035023062201792846FFF7EEFA3F
:1029F0000646FF2823D0022E21D20146284600F0A9
:102A0000BFFDE0B94FF48077384602F01DFCD5F8E1
:102A10007C130446C861200011D03946FDF742FC02
:102A200006EB860000EBC60005EB400090F84E1365
:102A30000A0606D5E171B0F85013618105E0022065
:102A4000FEBDA171B0F85013218190F856130A060B
:102A500004D5E171B0F85803608103E0A171B0F8CA
:102A600058032081002020736073A073A179284649
:102A7000FFF706FA6071E1792846FFF701FA207145
:102A80002846FFF71DFE208995F81D1302260091A8
:102A9000CDE9016095F81C33A2796179284600F0F0
:102AA000D5FB608995F81D130091CDE9016095F87B
:102AB0001C33E2792179284600F0C8FB21790022F5
:102AC0002846FFF7BBFD617900222846FFF7B6FDD7
:102AD0000020FEBD2DE9F0470746D0F87C034FF0FB
:102AE000010AC469207B10B101282DD12CE1B4F872
:102AF000F800217801254FF0000888426FD200EBE2
:102B0000800101EBC00004EB8000022680F89150A8
:102B1000B4F8F8004FF0050900EB800101EBC001AB
:102B200004EB810292F8901009290DD2DFE801F040
:102B3000050C1F880DB10C0CFF00042082F89000DA
:102B4000D7F8C403C4F8FC0000E1C1B238469F3294
:102B500000F08CF940B9B4F8F80000EB800101EB0B
:102B6000C00004EB8000B6E002287DD099E0C1B23D
:102B7000384600F0ABFA10B1022831D091E0B4F839
:102B8000F80000EB800101EBC00004EB800090F83E
:102B9000921011B180F8C15001E080F8C180B4F802
:102BA000F820032002EB820101EBC20104EB81015A
:102BB00081F89000B4F8F81001EB810202EBC1013A
:102BC00004EB810181F89180B4F8F81001EB8102E7
:102BD00002EBC10104EB810181F89280B6E0AAE02A
:102BE000B4F8F80000EB800101EBC00004EB8000BA
:102BF00090F89210022902D080F8C15001E080F8CC
:102C0000C180B4F8F81001EB810202EBC10104EBC2
:102C1000810181F89090B4F8F80000EB800101EB9D
:102C2000C00004EB800080F89150B4F8F80000EB8D
:102C3000800101EBC00004EB800080F8926085E029
:102C4000C1B23846943200F0BBF900288CD1B4F8F8
:102C5000F80000EB800101EBC00004EB800080F87D
:102C60009050B4F8F81000E008E001EB810202EBAC
:102C7000C10104EB810181F8918031E0B4F8F810D2
:102C800001EB810202EBC10104EB810181F890901C
:102C90005CE0C1B238469C3200F0CFF920B1022886
:102CA00023D004282DD051E0B4F8F80000EB8001C7
:102CB00001EBC00004EB800090F89C10062901D0C5
:102CC00002290BD1D7F8C413D4F8FC20891A42F298
:102CD0001072914202D280F8906037E080F89050F4
:102CE00034F8F80F401C208030E0B4F8F8100820C9
:102CF00001EB810202EBC10104EB810181F890003C
:102D000024E0B4F8F80000EB800101EBC00004EB14
:102D1000800080F89050B4F8F80000EB800101EBDF
:102D2000C00004EB800080F891600FE0FFE7401CDA
:102D3000A4F8F8000AE0A4F8F8802573D7F8D423A3
:102D400002213846904701E04FF0000A5046BDE8A6
:102D5000F08700002DE9F843D0F87C2301EB8103D4
:102D600003EBC103D269012502EB8304082794F821
:102D700090302E46052B22D000224FF00508062B5E
:102D800002D0072B2AD10CE0002300921A4600F053
:102D9000D7F80BE002280FD018E000BF84F890703D
:102DA0001BE0002300921A4600F0B6F90028F1D18A
:102DB00084F89060002511E084F890800EE004F122
:102DC0009C0200F03AF920B1022807D00428E5D08F
:102DD00004E004F8906F0220607002252846BDE8E8
:102DE000F8832DE9F8430446D0F87C03089E0F468B
:102DF000C56994F8200360B120780B2809D107EB4E
:102E0000870000EBC70005EB800090F890100129C7
:102E100002D00220BDE8F8830621297380F89010C3
:102E2000A5F8FA7039462046009600F089F8D4F8E3
:102E3000C48340F271204FF00109464309E0D4F801
:102E4000C413A1EB0800B0EB061F0CD894F82003C4
:102E500048B139462046FFF77DFF0128EFD085F8BD
:102E60000C900020D6E785F80C90D2E72DE9F041D0
:102E70001546D0F87C2302270026D4694FF00108BC
:102E800094F85220012A02D0022A56D126E02420AA
:102E90008022E06584F860200A2284F86220C4F869
:102EA0006360C4F86760A4F86B60122284F8632042
:102EB000490184F8641084F8656084F8666084F8D9
:102EC000670084F86860022084F8508084F852001B
:102ED00004F110000127C4F88C002EE0FFF702FC7B
:102EE00007002AD122212846FDF7DCF9D4F88C000E
:102EF000007800F01F006870D4F88C00007840095A
:102F00002870D4F88C004078000602D585F802803D
:102F100000E0AE7054F88C0F10228168C5F80310E1
:102F2000C068C5F80700216805F10C001031FDF7F5
:102F3000A0F92068006AC5F81D003846BDE8F08198
:102F40002DE9F041154602461F46D2F87C33022097
:102F5000069EDC6994F85230012B06D0022B2DD14D
:102F6000BDE8F0411046FFF7BDBBB4F89800102152
:102F70007043E065802084F860000A2084F86200D5
:102F800004F16300FDF78EF9282084F86300280E11
:102F900084F86500280C84F86600280A84F8670025
:102FA00084F86850300A84F86A0084F86B60012065
:102FB00004F8500F0220A0700120E763BDE8F08103
:102FC00070B51646D0F87C230125D46994F85220B8
:102FD000012A02D0022A2ED11AE00820E0658020C2
:102FE00084F860000A2084F86200102104F1630074
:102FF000FDF758F9252084F86300012084F850007B
:10300000022084F8520004F11000C4F88C0012E091
:10301000FFF768FB05000ED154F88C0F4188427809
:1030200049BA007862F31F4141EA006030602068CD
:10303000C08840BAB080284670BD70B515460246BB
:103040000E46D2F87C130220CC6994F85210012964
:1030500014D0022911D131461046FFF743FB002856
:103060000BD154F88C1F897801F00F012970216869
:10307000097B69702168497BA97070BD0E2580208D
:10308000E56584F860000A2084F86200102104F1EC
:103090006300FDF707F9032084F86300700184F8EA
:1030A0006400002084F8650084F8660084F86750A6
:1030B00084F86800012084F85000022084F852004F
:1030C00004F11000C4F88C00012070BD70B50246F8
:1030D0000220D2F87C33DC6994F85230012B06D000
:1030E000022B18D1BDE870401046FFF7FBBA00254F
:1030F000E56584F860500A2084F86200102104F12C
:103100006300FDF7CFF884F86350012004F8500FF6
:103110000220A070012070BD2DE9F0411546024645
:103120001F46D2F87C330220069EDC6994F85230A8
:10313000012B06D0022B2DD1BDE8F0411046FFF740
:10314000D1BAB4F8980010217043E065002084F8EB
:1031500060000A2084F8620004F16300FDF7A2F821
:103160002A2084F86300280E84F86500280C84F86F
:103170006600280A84F8670084F86850300A84F8EA
:103180006A0084F86B60012004F8500F0220A070E0
:103190000120E763BDE8F08100207047D0F87C2370
:1031A0000078D2690B2808D101EB810000EBC10047
:1031B00002EB800090F8910008B1002070470120D8
:1031C00070472DE9F8430446D0F87C03089E0F466B
:1031D000C56994F8200360B120780B2809D107EB6A
:1031E000870000EBC70005EB800090F890100129E4
:1031F00002D00220BDE8F8830721297380F89010DF
:10320000A5F8FA70394620460096FFF785FFD4F8F6
:10321000C48340F271204FF00109464309E0D4F81D
:10322000C413A1EB0800B0EB061F0CD894F82003E0
:1032300048B139462046FFF78DFD0128EFD085F8CB
:103240000C900020D6E785F80C90D2E7FEB508AFC9
:1032500097E870008DE87000FFF7CEF90020FEBD02
:103260002DE9F84105460B782B704B786B704B8835
:103270006B800B792B714B796B718B79AB71CB793F
:103280000846EB710027097A2972092A54D90921C5
:10329000ADF800104BE06946FEF7E0FE41780429E6
:1032A00043D107EB870101EBC70105EB410801782A
:1032B00088F80A10417888F80B10817888F80C108B
:1032C000C17888F80D10017988F80E10417988F8D6
:1032D0000F10817988F81010C17908F10A0488F874
:1032E0001110017A2172002615E06946FEF7B6FE3C
:1032F000417805290FD108EBC60102780A7542789A
:103300004A7582788A75C278CA7582880A838279FA
:10331000761C8A76F6B22179B14204D96A88BDF862
:1033200000108A42E1D87F1CFFB2022F04D26988C4
:10333000BDF800209142AED8BDE8F881FEB502216B
:1033400004468DF8001094F821230020012A01D1B1
:103350000322227022780D26082700250C2A17D276
:10336000DFE802F0061734DEF869C27C848C9AD755
:1033700094F8200300280BD001202070C820FEF70D
:1033800022FE2046FFF74EF984F81C53C4F8C853B8
:10339000E0E094F8230301280DD0D4F8C803B0F579
:1033A0007A7F0CD994F81F03401CC0B284F81F0325
:1033B000032870D86DE084F81F532170CAE00A30EA
:1033C000C4F8C8030A20FEF7FEFDC3E0D4F8D423F6
:1033D00012B10421204690476420FEF7F4FD2046F8
:1033E000FFF7AEF884F81D03052020700021204669
:1033F000FEF746FD607180212046FEF741FD2071F9
:103400000146A07994F81D230092CDE9015094F86B
:103410001C3380222046FFF719FFA07994F81D1372
:103420000091CDE9015094F81C33617900222046C7
:10343000FFF70CFF8EE02046FEF76EFF8DF80000D0
:103440009DF80000002808D184F8245394F837032D
:10345000012801D0072058E027707BE0D4F8D4235E
:10346000002A77D0012120469047F5E794F83D13D4
:10347000204600F09EF8B0BB092046E094F83F03D8
:103480004FF00A05800604D50121204600F09FF880
:1034900048BB25705EE03AE0D4F8801319B3C4F855
:1034A0007C5394F8471300BF04EB8002D2F87823D2
:1034B00012798A4206D104EB8000D0F87803C4F870
:1034C0007C0304E0401C10F0FF00EDD02846F0B172
:1034D000816820468847D0B906202070D4F8D423CC
:1034E00003212046904735E0D4F87C0378B1016988
:1034F000204688478DF800009DF8000020B19DF817
:103500000000022803D025E00B20207022E0267066
:1035100020E0D4F87C03E8B141692046884719E0EF
:1035200084F821532046FCF711FFD4F87C0320B126
:10353000C16820468847C4F87C53D4F8D42312B11C
:1035400005212046904794F82203012804D0204604
:10355000FFF784F80020FEBD84F82253204600F0D7
:1035600044F8F7E7002211B1D0F8803313B10222FA
:10357000104670470123C0F88033C0F87813F7E78E
:103580000246002092F83C338B4202D982F8241381
:103590007047022070478278012A06D10022027407
:1035A0000523437441828282C28200221146FEF7C3
:1035B000CABC8278012A06D100220274092343740E
:1035C00041828282C28200221146FEF7BCBC827810
:1035D000012A06D1002202740323437441828282AD
:1035E000C28200221146FEF7AEBC10B50446FFF7BA
:1035F00035F801212046FEF78DFF002010BD0000A8
:1036000001290AD00548022906D0042903D005293A
:1036100003D1032100E00121017070470800002060
:103620000020704730B58DB01546012449B10129FD
:1036300009D0022910D0032918D004240DB0204647
:1036400030BD0024FAE701466A460E48FFF78AF9C2
:103650000028F3D1019813E001466A460948FFF7B4
:1036600081F90028EAD1BDF8080009E001466A4660
:103670000448FFF777F90028E0D1BDF80800400AB8
:103680002860DEE7D000002030B58FB005460093FB
:103690000B46014601240C48FFF7A3FB68B101AAC1
:1036A00029460948FFF75EF99DF81100042806D065
:1036B000282804D03A2803D101E0002400E00324A4
:1036C0000FB0204630BD0000D000002010B50146EC
:1036D00001240348FFF762FD00B10024204610BD1D
:1036E000D000002030B58FB0054600930B46014650
:1036F00001240E48FFF765FD78B101AA29460B4861
:10370000FFF730F99DF8110004280AD0272806D0C9
:10371000282806D03A2805D103E0002402E002243C
:1037200000E003240FB0204630BD0000D000002090
:1037300070B5044606990A9E049D0D98012916D07D
:10374000E06840F04000E060204600F02BF8A16BFC
:103750001EB321F48031A163012D07D1A16841F08E
:103760000601A160A16841F02001A16070BDA16BBC
:1037700021F48031A163E168094A1140E160E16808
:1037800021F44011E160012803D1E06840F4801089
:10379000E060204600F006F8DEE741F48031DAE729
:1037A000BFFFBDFF01220C4902E0521C8A420BD828
:1037B0000369002BF9DA026942F001020261012279
:1037C00004E0521C8A4201D9032070470369DB07D9
:1037D000F7D1002070470000400D0300816821F000
:1037E000010181600020704700EB4110064AC0F8DB
:1037F0001025D0F8001521F0804141F00041C0F8BB
:1038000000150020704700000000088008B5D0F8BF
:10381000402422F02E020092D20405D4012909D1BD
:10382000009941F4805103E021B9009921F48051BD
:10383000C0F84014002008BD816841F0010181609A
:1038400000207047002110220261054A491C914264
:1038500001D9032070470369DB06F7D400207047C5
:10386000400D03000022202343EA81110161054934
:10387000521C8A4201D90320704703699B06F7D482
:1038800000207047400D0300D0F8080480B2704754
:1038900008B5D0F840040090C0F3414008BD40692D
:1038A00000F00100704700EB4111D1F800254FF402
:1038B0007A73C2F381426AB1022A0BD0D1F8002593
:1038C00042F08042C1F80025D0F8100410F47F0FB8
:1038D0002ED009E0D1F8002542F08042C1F8002541
:1038E000C06A10F47F0F07D0D1F8000540F0004007
:1038F000C1F8000500207047D1F8000520F0004015
:10390000C1F80005D1F8000540F00040C1F80005FD
:10391000D1F8000520F40040C1F80005012002E0C4
:10392000401C9842E6D8D1F80025002AF8DBE1E7F0
:10393000D1F8000520F00040C1F80005D1F80005DD
:1039400040F00040C1F80005D1F8000520F4004027
:10395000C1F80005012002E0401C9842CAD8D1F805
:103960000025002AF8DBC5E72DE9F0430026DDE954
:10397000078500EB4114771EDDF82490C4F8087524
:10398000CDB1012D32D0022D15D0032D27D0012627
:10399000D0F8187401F00F0C012101FA0CF10F435B
:1039A000C0F81874816941F00071816110062AD550
:1039B0004FF4004028E040F29D47C4F80C7517060C
:1039C00005D500BFD4F80C7547F4807718E0C76BB5
:1039D000FF05DDD5D4F80C7547F0600710E040F224
:1039E0009D67C4F80C751706ECD4D1E740F2252783
:1039F000C4F80C751706CBD5D4F80C7547F4C0770E
:103A0000C4F80C75C4E70020B8F1020F18D00021EB
:103A10004FF0FE5707EA83534FF4F04707EAC222FC
:103A200013434FF4402202EA85421343C9F30A02CA
:103A3000134303430B43C4F80035032D03D008E0C0
:103A40004FF40031E4E7D4F8000540F00050C4F82A
:103A500000053046BDE8F083D0F8140480B270470A
:103A6000F8B54C78C56B4FF48073ED054FF0000747
:103A700015D50D799DB912B1012A07D00FE04D7906
:103A8000012D0CD12146FFF7AFFE8CE000EB441571
:103A9000D5F80C6526F06006C5F80C654F710E6907
:103AA0005EB10D892E44761EB6FBF5F6B6B29E4287
:103AB00004D91E462B020B6100E00126CB78CBB364
:103AC0000B897343C1F810306FF06045C3F31203E4
:103AD00005EAC6452B438D7A4FF0C04606EA457588
:103AE0002B4300EB44140546C4F8103512B1CB68E3
:103AF000C4F81435D5F80834D4F8005543F300035E
:103B000025F00055C4F80055D4F800555B1C45EA73
:103B10004373C4F80035D4F80055244B1D601D686C
:103B200025F080451D60CD78002D1D6805D045F439
:103B3000004504E0FFE70B69C6E725F400451D607A
:103B40001D6845F000451D601B68C4F8003552BB78
:103B5000CA7842BB0A6932B3CB7933B1012B0FD09B
:103B6000022B02D0032B17D10AE0D21CC36AC2F386
:103B70008F029BB293420FD2826942F020020AE088
:103B8000D21CD0F81034C2F38F029BB2934203D2FE
:103B9000826942F08062826100970A8A93B24A7811
:103BA000C96800F00AF90020F8BD00004C000020B0
:103BB0002DE9F0410025DDF8188017460446C0F8CD
:103BC000005E806B20F40010A063A06B20F4003036
:103BD000A063E06BC00501D5012B04D0D4F800042C
:103BE00020F0040103E0D4F8000440F00401204672
:103BF000C4F800141021FFF735FE2046FFF722FE1F
:103C00000020461E07E000BF04EB4011C1F8086524
:103C1000C1F80C55401C8742F6D801212046FFF719
:103C2000F5FDC820FCF7E0FBA5616661E06BC0050F
:103C300006D54FF4007060620C48A0620C4804E0A6
:103C4000802060620B48A0620B48C4F80001B8F104
:103C5000000F03D1A06940F01000A061A0690749DE
:103C60000843A0610020BDE8F081000000020001CF
:103C70000003E00080006000E0004000080020A396
:103C8000D0F8002422F00302C0F80024D0F8002469
:103C900001F003031A43C0F80024012902D00229CD
:103CA00003D006E04BF6803101E041F27071C0F8BC
:103CB0000414002070474169806908407047D21C95
:103CC00010B59308002200F5805002E00468521CF1
:103CD00010C19A42FAD3084610BD38B50446D0F850
:103CE000400420F02E00009040F48070C4F840049E
:103CF000642004F58864FCF777FB009820F480705A
:103D000020600A20FCF770FB002038BD10B5C268A7
:103D100022F0C042C260012902D029B1012010BDA9
:103D2000C16841F0005102E0C16841F08041C160CA
:103D30003220FCF759FB002010BD000030B50446CE
:103D40008068002520F00100A06010212046FFF7C8
:103D500089FD2046FFF776FD5FF0000004EB40117F
:103D6000D1F8002522F0802242F08042C1F80025DF
:103D7000401C0F28F2D900204FF47A7304EB401155
:103D8000D1F8002522F4004242F04042C1F800255B
:103D90006D1C9D4203D8D1F80025002AF8DB401C99
:103DA0000F28EBD94FF0FF30C4F814046061A0680D
:103DB00040F00100A060002030BD10B5029C64B945
:103DC000DB1C9C0800EB0230002300F5805002E071
:103DD00004C902605B1CA342FAD3002010BDFEE7B9
:103DE0000FB4084B10B504A902AA039800F02CF8F0
:103DF000044602A9002000F0C8F9204610BC5DF876
:103E000014FB00008B4100080907090E002804DBA1
:103E100000F1E02080F80014704700F00F0000F17E
:103E2000E02080F8141D704702E008C8121F08C186
:103E3000002AFAD170477047002001E001C1121F2B
:103E4000002AFBD1704700002DE9FF4F8BB0884658
:103E50000546002606E025280BD0DDE90D12904727
:103E60006D1C761C28780028F5D10FB03046BDE8CF
:103E7000F08F0024A146A2460122AE4900E004438F
:103E800015F8013F203B02FA03F00842F7D12878E9
:103E90002A2810D06FF02F022878A0F130010929CC
:103EA00015D809EB890102EB410144F0020400EB53
:103EB00001096D1CF0E758F8041B5FEA010903D5FE
:103EC00044F40054C9F1000944F002046D1C287840
:103ED0002E2817D115F8010F44F004042A280ED01B
:103EE0006FF02F022878A0F1300109290AD80AEBD7
:103EF0008A0102EB410100EB010A6D1CF2E758F860
:103F000004AB6D1C28786C280FD006DC4C2817D029
:103F100068280DD06A2814D104E0742810D07A28BB
:103F20000FD10DE044F400140AE044F4801401E0E1
:103F300044F440146978814202D104F580146D1C68
:103F40006D1C2878692865D006DC00288DD0632890
:103F500027D0642806D15DE06E2808D073282AD0C7
:103F6000752877D0DDE90D129047761CE0E0C4F3A8
:103F70000250022809D003280DD0D8F800100428D8
:103F80000DD00E6008F10408D2E0D8F80010F21746
:103F9000C1E90062F6E7D8F800100E80F2E70E7073
:103FA000F0E718F8041B8DF8001000208DF80100D0
:103FB000EB46012003E058F804BB4FF0FF306107E7
:103FC0004FF0000701D40AE07F1C57450DDA874205
:103FD000FADB1BF807100029F6D106E07F1C8742A8
:103FE000FCDB1BF807100029F8D1DDE90D23A9EB54
:103FF00007008146214600F0B1F83044C61904E0BC
:10400000DDE90D121BF8010B90477F1EF8D2214607
:10401000484688E058F8040BC4F302514FF00A0BED
:10402000032900D100B2042900D140B2002802DAED
:1040300040422D2102E0210505D52B218DF82410C9
:10404000012104E006E0E10710D02021F6E708AFE7
:10405000089113E058F8040BC4F302514FF00A0B17
:10406000032900D180B2042900D1C0B20021EEE7BB
:104070005946FCF722F9303107F8011D0028F7D125
:10408000ADEB070000F1200B600702D524F480346B
:1040900001E04FF0010ADA4502DDAAEB0B0000E077
:1040A0000020824600EB0B0108980144A9EB0100B7
:1040B0000A90E00306D4DDE90D2321460A9800F0BA
:1040C0004DF806444FF0000908E009A911F809006D
:1040D000DDE90D12904709F10109761C089989451F
:1040E000F3DBE0030CD5DDE90D2321460A9800F04F
:1040F00035F8064404E0DDE90D1230209047761CC7
:10410000BAF10001AAF1010AF5DC05E0DDE90D12C2
:1041100017F8010B9047761CBBF10001ABF1010BC6
:10412000F4DC0A982146DDE90D2300F005F8064489
:104130006D1C97E6092801002DE9F0410446002591
:104140001E461746880404D405E039462020B047AF
:104150006D1C641EF9D52846BDE8F0812DE9F041BB
:10416000044600251E469046C80301D5302700E0CE
:104170002027880404D505E041463846B0476D1C29
:10418000641EF9D52846BDE8F0810A68531C0B600F
:104190001070704710B504460020E070401EE062C9
:1041A000204601F098F808B1042010BD04F22E203A
:1041B00001F020F8A0F52A41553901D0032010BDA7
:1041C00094F83000E92805D0EB2814D194F8320097
:1041D000902810D104F1660001F001F80749B1EB15
:1041E000002F06D004F1820000F0F9FF0449884254
:1041F00001D1002010BD022010BD00000046415436
:1042000046415433F0B50022144D134605EB021419
:1042100026685EB10768BE4209D166688768BE42FB
:1042200005D1A4684669B44204D000E00123521CC1
:10423000022AEBD3022A01D069B904E04BB9022962
:1042400007D01220F0BD05EB02108089B0F5807F09
:1042500001D00020F0BD1020F0BD0000F80C0020BF
:1042600030B50021054B0C4603EB01121568854261
:1042700000D11460491C0229F6D330BDF80C00208F
:104280000268490AC06A5289B1FBF2F1001D04C8F4
:104290001AB1914203D3891AF8E7002070470068E9
:1042A000084470474269891E921E8A4201D8002044
:1042B0007047826A408901FB002070472DE9F04178
:1042C00005680F00804606D000F0B6FE022809D22D
:1042D0000120BDE8F081EE6816B16869B04207D8E8
:1042E000012605E0411CF4D069698142F1D83E46BF
:1042F00034466869641CA04202D80224022E0AD304
:104300002146404600F098FE38B10128E1D0411C1A
:10431000DFD0B442EDD10020DBE74FF0FF3632466C
:104320002146284600F0F0FF30B957B12246394601
:10433000284600F0E9FF20B101280FD001242046D3
:10434000C7E7EC60D5E90401891E884201D8401E08
:104350002861287940F001002871F0E73446EEE743
:104360002DE9F0410E4624300D6804460B22202131
:1043700000F0AAFF0020014608272A5C401C202AE2
:1043800012D92F2A0BD05C2A09D02E2A01D0B9428B
:1043900014D30B2F22D02E2A20D10CE0401C2B5CF2
:1043A0002F2BFBD05C2BF9D028443060B1B12078A2
:1043B000E5281FD020E008210B27DEE7802A03D361
:1043C000114B1A4412F8802C10A300E05B1C93F8E8
:1043D00000C0BCF1000F04D09445F7D10620BDE821
:1043E000F081A2F16103192B01D8203AD2B26254B4
:1043F000491CC2E705202070202A01D8042000E0D3
:104400000020E0720020EAE7D0570008222A2B2C77
:104410003A3B3C3D3E3F5B5D7C7F0000401E0228F6
:1044200012D20A4901EB00118889B0F5807F05D0CE
:1044300008B1401E80B2888110B103E00020FAE785
:10444000002008600020704702207047F80C002010
:104450002DE9F04104460021056800F0D8F8002855
:1044600026D12846E16900F036FF02001FD1206AFC
:10447000017899B1C17A01F03F01A171C17A0907B0
:104480000FD404F124010B2610F8013B11F8017B35
:10449000DB1B761E04D0002BF6D002E0042206E0DF
:1044A0002BB10021204600F005F80200D9D01046BB
:1044B000BDE8F0812DE9F047054647690468C06909
:1044C0008946203710B1B7F5001F02D30420BDE89C
:1044D000F087F90560D1401CE861A9694FF0000838
:1044E00029B16089401E10EA572F05D054E0208979
:1044F000B0EB571F1DD94FE0284600F09DFD064642
:1045000001281BD9701C33D06069B0423ED8B9F184
:10451000000F0ED02846A969FFF7D0FE06000BD089
:10452000012E0BD0701C23D0204601F001F8F8B901
:1045300006E0C5F81C80C9E70720C8E70220C6E7E7
:104540004FF40072002104F1300000F0BDFE4FF086
:10455000000831462046FFF7A5FE4FF00109E06252
:104560000DE000BF84F80390204600F0E1FF08B1A1
:104570000120ACE7E06A08F10108401CE0626189B3
:104580004145EFD8E16AA1EB0800E06231462046E0
:10459000AE61FFF787FEE861C7F3080020443030C2
:1045A0006F612862002092E770B50446002106681A
:1045B00000F02DF80DE03046E16900F08CFE50B9B6
:1045C000206A0078E52809D040B101212046FFF794
:1045D00071FF0028EFD0042807D007E03046E169DA
:1045E00000F079FE050003D00FE0072005460CE03F
:1045F00020220021206A00F067FE0B2204F1240132
:10460000206A00F057FE0120F070284670BD2DE9A9
:10461000F04107680E460546B1F5001F36D2F00698
:1046200034D16E61AC6824B93878032805D37C6A2C
:104630001CB178894FEA402812E03889B0EB561F48
:1046400024D9786A12E0284600F0F6FC0446401CA3
:104650001AD0022C1AD37869A04217D9A6EB080603
:1046600046452146EFD23846FFF71CFEC5E9064015
:1046700060B100EB5620E861C6F3080038443030E2
:1046800028620020BDE8F0810120FBE70220F9E765
:10469000084910B50B5C002253B901220A540A18CC
:1046A00001EB8000127A4068016810468847024694
:1046B000104610BD180D002030B4054C231804EB33
:1046C00080001B7A406804691846A44630BC6047E5
:1046D000180D002030B4054D2C1805EB8000247A0D
:1046E000406885682046AC4630BC6047180D002005
:1046F000044A111802EB8000097A406842680846B3
:1047000010470000180D002030B4054D2C1805EBA3
:104710008000247A4068C5682046AC4630BC6047BB
:10472000180D002038B5044600F0EBF900280CD134
:104730006946204601F01CF8002806D12069FFF7E1
:104740006DFE002801D10021216038BD2DE9F7411F
:1047500081B0904602980090684600F0CEFC0400BC
:1047600003D50B2004B0BDE8F0810D4E002756F8AC
:1047700024501DB12846FFF773FD2F7001980028C3
:1047800000D0077046F8240002D0B8F1010F01D024
:104790000020E7E7002201A902A800F0C1FAE1E742
:1047A000640000202DE9F74392B005000BD002F021
:1047B0003F063246694613A800F0B2FA04004FF0F3
:1047C000000804D0ECE0092015B0BDE8F0830098A3
:1047D000049004A8139900F0CDFB04000ED19DF8BD
:1047E0003F00000601D5062408E0700801D0012131
:1047F00000E0002104A8FFF705FD044616F01C0F99
:104800005DD04FF00109C4B1042C10D100206749DC
:1048100002E0401C022804D201EB00121268002AB8
:10482000F7D1022807D004A8FFF7BEFE044646F0E1
:1048300008065CB1B4E01224B2E09DF8160010F056
:10484000110F47D1700701D50824A9E0300747D5DB
:1048500000F051FC07460C9839460E3000F017FE68
:104860000C983946163000F012FE0C982021C172C7
:104870000C99009800F0A0FC074600220C990098C3
:1048800000F0F1FD0C9800211C3000F000FE0099B2
:1048900081F8039017B3D1F82C900022394604A870
:1048A00000F0A7FD04007BD14946009800F013FDFD
:1048B00004000098A7F10107C7600DD070E0ECBBC1
:1048C0009DF81600C10601D5042469E0B10703D59F
:1048D000C00701D0072463E0300701D546F0400649
:1048E0000098C06A68620C98A862700801D0012123
:1048F00000E0002104A800F01FFC2861B8B30C9967
:10490000009800F059FCA8600C981C3000F067FC7F
:10491000C5F82C80E86000992960009905F1300005
:104920004FF40072C988A9802E7585F81580C5F8E6
:10493000208000218146C5F8188000E030E000F0BA
:10494000C3FCB0062ED5EE6866B3AE610098A968C8
:10495000408947020FE0284600F06EFB014601281F
:1049600000D80224481C03D0F61B24B105E01BE04C
:104970000124F61B01E0BE42EDD8E96184B9F005DF
:1049800010D00098FFF78EFC70B100EB56222A621F
:104990000098012349464078FFF79CFE10B101249E
:1049A000C5F8008020460FE70224F9E7F80C002044
:1049B0002DE9FE4F884600211960994615460446A8
:1049C00002A900F0D5FE002812D1607D00280FD189
:1049D000207DC0070BD0E168A0690127081A4FF0BD
:1049E000020A04F1300B854200D9054684E0072015
:1049F000BDE8FE8FA169C80566D102984089401EB6
:104A000010EA512611D129B1E06A28B12046FFF7FA
:104A100037FC05E0A06803E02046E16900F00CFBEC
:104A200002281BD3411C4AD0E061E1690298FFF7DC
:104A300039FC98B130440190680A009025D0029961
:104A400032184889824201D9801B0090DDE900328A
:104A500048784146FFF73EFE88BB03E084F815A086
:104A60000220C5E7207D00060CD5216A0198081AAE
:104A70000099884206D208EB40204FF40072594654
:104A800000F018FC009846022CE0226A019882424D
:104A900018D0207D00060AD5029801235946407897
:104AA000FFF732FE58B9207D00F07F002075029894
:104AB000012359464078019AFFF70CFE10B1677543
:104AC000012095E701982062208BC0F30800C0F513
:104AD0000076AE4200D92E460119324640463031AA
:104AE00000F0E8FBA069B0443044A061D9F80000B0
:104AF0008119AD1BC9F80010002D7FF47BAF002099
:104B000076E7F8B50446694600F032FE00280ED17B
:104B1000217D4A060BD508060ED50098226A01238E
:104B2000407804F13001FFF7EFFD08B10120F8BD36
:104B3000207D00F07F00207500F0DDFA0646616AF6
:104B4000009800F0C8FB0028F1D1A56A2946E87A50
:104B500040F02000E872A268206800F084FC05F1B3
:104B60001C00E16800F093FC314605F1160000F0EE
:104B70008EFC002105F1120000F091FC009801214B
:104B8000C17000F091FC217D01F0BF012175F8BDDD
:104B90002DE9FE4F044600208846186099461546C8
:104BA00002A9204600F0E4FD002806D1607D00281F
:104BB00003D1207D800702D40720BDE8FE8FA069C5
:104BC000012742194FF0020A04F1300B824200D251
:104BD000C5439BE0A169C80575D102984089401E74
:104BE00010EA512618D129B1E06A38B12046FFF702
:104BF00047FB07E0A06838B9002100E0E1692046E2
:104C0000FFF75CFB00287DD001282DD0411C54D03B
:104C1000E061A16801B9A060207D00060BD5029873
:104C2000226A012340785946FFF76EFDA0BB207D24
:104C300000F07F002075E1690298FFF733FB98B11F
:104C400030440190680A009027D0321802984189B8
:104C50008A4201D9891B0091DDE900324078414642
:104C6000FFF752FDC0B903E084F815A00220A4E7C5
:104C7000216A0198081A009988420AD208EB40215B
:104C80004FF40072584600F015FB207D00F07F00C5
:104C900020750098460228E00FE0216A01988142C1
:104CA0000FD0E168A06988420BD2029801235946CF
:104CB0004078019AFFF70EFD18B1677501207CE777
:104CC00001E001982062208BC0F30800C0F5007657
:104CD000AE4200D92E46204432464146303000F0E4
:104CE000E9FA207D40F080002075A069B04430448E
:104CF000A061E168884200D80846E060D9F8000069
:104D0000811900E005E0AD1BC9F80010002D7FF40B
:104D100061AF207D40F04000207500204DE700008D
:104D20002DE9FF41002790460E460F6000F0E5F99F
:104D3000050003D50B2004B0BDE8F0818A4850F887
:104D400025409CB13460207808F0FE0620B16078E0
:104D5000FFF7CEFCC1070BD02770E8B2B8466070F1
:104D6000FFF796FCC10708D00320E4E70C20E2E738
:104D70000EB1400704D40020DDE71EB1400701D585
:104D80000A20D8E7002631462046FFF703FA02281A
:104D900022D100254FEA0D0704EB051090F8F2111F
:104DA00000F5F77019B1083000F019FA00E00020A2
:104DB00047F825006D1C042DEED3002557F825601B
:104DC00036B131462046FFF7E5F9022801D203E06B
:104DD00003206D1C042DF1D3042809D002286DD2C4
:104DE00004F13B0000F006FAB0F5007F66D101E067
:104DF0000120A0E704F1460000F0FCF918B904F125
:104E0000540000F0ECF9A06194F84050A570012D19
:104E100001D0022D52D1454394F83D006081E8B3A2
:104E2000411E08424AD104F1410000F0E3F920811B
:104E3000000743D104F1430000F0DCF9070004D17E
:104E400004F1500000F0CBF9074604F13E0000F0F9
:104E5000D1F9010032D02389481900EB131297428F
:104E60002CD3B81A6789B0FBF7F0B8B103274FF617
:104E7000F57C604500D8022740F6F57C604500D8F7
:104E80000127801C3244A26231446061C4E9076199
:104E9000032F15D013B12944616200E00EE0022F08
:104EA0001FD000F0010100EB400001EB500000BFFB
:104EB000A16900F2FF10B1EB502F14D20D203AE798
:104EC00004F15A0000F096F90028F7D12089002853
:104ED000F4D104F15C0000F082F960626069800046
:104EE000E6E74000E4E74FF0FF302061E06080201B
:104EF0002071032F2CD104F1600000F07BF9012810
:104F000026D1711C204600F0E6F908BB84F8048025
:104F100004F22E2000F06EF9A0F52A41553917D180
:104F200004F1300000F05BF91049884210D104F51B
:104F3000057000F054F90E49884209D104F5067055
:104F400000F04DF9206104F5077000F048F9E060C9
:104F500005492770091F0888401C0880E08020460A
:104F6000FFF77EF907E7000064000020525261411C
:104F70007272416173B504460568019801E0401CF6
:104F8000019001782F29FAD05C29F8D00021A16086
:104F900001980078202806D2802084F82F0020462F
:104FA000FFF735FB7CBD01A92046FFF7D9F90028A2
:104FB000F8D12046FFF74CFA94F82F1028B10428B6
:104FC000F0D14907EED405207CBD4907FCD4A07977
:104FD000C006F8D5A08AC0F3080041192846303130
:104FE00000F0EAF8A060DEE710B5002821D0114BF0
:104FF0000022001F196803E0814203D80A4649686D
:105000000029F9D152B11368841A9C4204D1006876
:1050100018441060104602E0506000E0186039B19A
:1050200002680B1A934203D10B681A440260496864
:10503000416010BD880000202DE9F04104680D4654
:1050400002290BD36069A84208D920784FF0FF36B7
:10505000012807D002282BD0032839D0012630465A
:10506000BDE8F081206A05EB550700EB572120468B
:1050700000F031F90028F2D1C7F3080020447F1C6A
:1050800090F83080206A00EB5721204600F023F989
:105090000028E4D1C7F30800204490F8301048EA13
:1050A0000120E90701D00609D9E7C0F30B06D6E7CE
:1050B000206A00EB1521204600F00DF90028CED122
:1050C000E8B204EB4000303000F094F80646C6E742
:1050D000206A00EBD511204600F0FDF80028BED173
:1050E00040F2FF1000EA85002044303000F077F8ED
:1050F00020F07046B3E70020704710B504464FF02B
:10510000FF302268002A13D0114600E0491C0B78BA
:10511000212B0ED33A2BF9D112F8013B303B0A2B4D
:1051200006D28A4204D1002B02D1491C18462160C4
:1051300010BD002010BD0000F0B502461D4BD2F896
:105140000050002003EB00142668AE4207D16668C9
:105150009768BE4203D1A4685669B44202D0401C8D
:105160000228EFD3022814D1002002E0401C0228BC
:1051700004D203EB00142468002CF7D102280ED0CF
:1051800003EB00142560956865605269A2600022F7
:10519000A281002903EB0011898902D019B10020F6
:1051A000F0BD491C01E04FF4807103EB0012401C7C
:1051B0009181F0BDF80C002070B506460D4601F156
:1051C0001A0000F017F804463078032805D105F1DD
:1051D000140000F00FF844EA0044204670BDC17886
:1051E000827842EA01214278007842EA012140EACD
:1051F000012070474178007840EA012070470000A4
:10520000FBF7F2FBFCF70CFDFCF762FC0D480C49C8
:105210000C2201604FF4E131416000218160C160E6
:10522000C0E904128161C161FCF79CF8FCF742FC03
:10523000FCF7C4FCFCF7E2FC00F0A4F9FAE700007C
:105240000048004090000020F0B50B30154D20F0D4
:1052500007010024144A0FE003688B420BD38B42F2
:1052600005D95E1A43184768C3E9006700E0436840
:10527000136002C004E0021D10680028ECD1204633
:10528000002802D1286808B10020F0BD064A07486E
:105290001060074A121A22F00702C0E90024012018
:1052A0002860D7E78C000020880000202C0D00200B
:1052B000282D0020002A05D011F8013B00F8013B01
:1052C000521EF9D1704700005FFA81F100F8011B0E
:1052D000521EFBD1704770B50446C06A0D460026C9
:1052E000A8420FD0204600F023F906000AD16078CA
:1052F00001232A4604F13001FFF7ECF908B1751ECD
:105300000126E562304670BD2DE9F04702261746BA
:105310000D460446022969D36069A84266D92078FF
:105320004FF00109012804D0022836D003285DD1AE
:1053300043E0216A05EB550801EB58212046FFF7B1
:10534000CAFF060052D1C8F308002044303008F1EB
:105350000108E90704D00178FAB262F31F1100E0F6
:105360003946017084F80390216A204601EB5821E8
:10537000FFF7B1FF060039D1C8F3080020443030F0
:10538000E90702D0C7F3071105E00178C7F303224C
:1053900001F0F0011143017026E0206A00EB1521B5
:1053A0002046FFF798FF060020D1E8B204EB40004A
:1053B000B9B2303000F073F816E0206A00EBD51176
:1053C0002046FFF788FF060010D140F2FF1000EAE8
:1053D0008500204430300546FFF701FF67F31B00CE
:1053E0000146284600F053F884F803903046BDE8A3
:1053F000F0872DE9F041056813460E46074602295D
:105400002DD36869B0422AD93BB14FF0FF3219461B
:105410002846FFF779FF00281FD131463846FFF7AD
:105420000BFE040018D0012C19D0601C19D00022EA
:1054300031462846FFF768FF00280ED1D5E9041051
:10544000821E914205D2491C2961297941F001014E
:1054500029712646B042E0D80020BDE8F081022044
:10546000FBE70120F9E770B50C460646154691B2F8
:1054700004F11A0000F013F83078032806D1290C43
:1054800004F11400BDE8704000F009B870BD01706F
:10549000090A4170090A8170090AC17070470170D8
:1054A000090A41707047000070B5044600F040F8EA
:1054B000050036D1207803282CD12079012829D164
:1054C000420204F1300000210646FFF7FDFE4AF6D5
:1054D000552104F22E20FFF7E2FF13493046FFF773
:1054E000D6FF124904F50570FFF7D1FF04F50670E9
:1054F0002169FFF7CCFF04F50770E168FFF7C7FFEC
:10550000E2690123521CE26260783146FFF7FCF841
:1055100000202071002260781146FFF7CDF800B11D
:105520000125284670BD00005252614172724161EE
:105530002DE9F0410446C0780027F8B1E56A04F18E
:105540003001607801232A468846FFF7DDF808B16C
:10555000012713E00020E070206AA169281A884220
:105560000CD2A67808E0A0690123054460782A4699
:105570004146FFF7C9F8761E022EF4D23846BDE840
:10558000F081000038B5474C2078022870D1002007
:105590006060012244A14648FFF7D8F80A2245A1DD
:1055A0004648FFF7FFF84FF47A7504F1380220B14E
:1055B00043A14948FEF714FC1BE048A14648FEF70A
:1055C0000FFC82B2A0602B4643494948FBF732FFEB
:1055D000344B28220C33191D3848FFF7D9FA607074
:1055E0003648FFF79FF8E06808B1607828B141A11C
:1055F00054E082B22B46A06047E02A4901223831AC
:105600002E48FFF7CFF868B1264A3EA1383232481B
:10561000FEF7E6FB82B2A0602B462F493448FBF729
:1056200009FF26E02C496B46C822C8392348FFF7FA
:10563000BFF96070009901B150B13BA12648FEF757
:10564000CFFB82B2A0602B4623492948FBF7F2FE2C
:105650001A48FFF767F860B13CA11F48FEF7C0FB8E
:1056600082B2A0602B461C492148FBF7E3FEFEE70F
:1056700012E00098E16888420FD138491648FEF7D9
:10568000AFFB82B241F28833A06013491848FBF7A0
:10569000D1FE6068401C606038BD31A10E48FEF745
:1056A0009FFBA6E708000020303A2F2F00000000E3
:1056B000A8040020312E747874000000D806002061
:1056C00043616E6E6F74206F70656E202573206667
:1056D000696C65200A000000D009002066696C65CD
:1056E0002025732063726561746564200A000000E0
:1056F000900000207772697465206572726F722065
:105700000A00000043616E6E6F74206F70656E203A
:1057100025732066696C6520666F722076657269F4
:105720006679200A0000000043616E6E6F7420727B
:105730006561642066696C6520666F7220766572AB
:10574000696669636174696F6E200A0066636C6FD5
:105750007365206661696C200A0000006C580008BF
:10576000766572696679206661696C200A000000BE
:1057700070B50E4604004FF009050CD0206850B1FA
:10578000017841B1A188C288914204D14078FEF7E6
:10579000AFFFC00703D000203060284670BD002551
:1057A0002068F9E721360008CD3600088936000860
:1057B000E536000825360008000000000000000063
:1057C00001020304060708090000000001020304A7
:1057D0004355454141414143454545494949414179
:1057E0004592924F4F4F5555594F554F9C4F9E9F45
:1057F00041494F55A5A5A6A7A8A9AAABACADAEAF88
:10580000B0B1B2B3B4414141B8B9BABBBCBDBEBF7F
:10581000C0C1C2C3C4C54141C8C9CACBCCCDCECF1B
:10582000D1D145454549494949D9DADBDCDD49DF74
:105830004FE14F4F4F4FE6E8E85555555959EEEFB8
:10584000F0F1F2F3F4F5F6F7F8F9FAFBFCFDFEFFE0
:1058500001000400100040000001000200000100EF
:105860000200040008001000200000007665726944
:105870006669636174696F6E204F4B202D207265DD
:105880006164206E756D626572206F662062797446
:10589000657320697320657175616C20746F207762
:1058A00072697474656E206E756D626572206F66C4
:1058B000206279746573200A000000004D53430094
:1058C000E05800080000002090000000283E00087A
:1058D0007059000890000020984C0000383E0008E5
:1058E00000000000000000000000000000000000B8
:1058F000000000000000000055534220486F737400
:10590000204C696272617279203A204D6173732074
:1059100053746F72616765204578616D706C6500C6
:1059200074657374000000000000000000000000B7
:105930000100000010000000000000000024F4003E
:105940000000000000000000BC5800080800000033
:10595000DD29000893290008ED280008D52A000851
:105960009931000800000000000000000000000065
:04000005080001D915
:00000001FF
